:0300000002090FE3
:0C090F00787FE4F6D8FD7581070208FD32
:030003000208559B
:10085500C0E0C0F0C083C082C0D075D000C000C069
:1008650001C002C003C004C005C006C0077590FFE3
:100875007FE87E031208D9D007D006D005D004D072
:1008850003D002D001D000D0D0D082D083D0F0D018
:02089500E0324F
:0300130002089749
:10089700C0E0C0F0C083C082C0D075D000C000C027
:1008A70001C002C003C004C005C006C00775A00090
:1008B7007FE87E031208D9D007D006D005D004D030
:1008C70003D002D001D000D0D0D082D083D0F0D0D6
:0208D700E0320D
:1008FD00D288D2A8D28AD2AAD2AFE4F59075A0FF41
:02090D0080F870
:1008D9007C007D19120800E4FEEEC39F501575894E
:1008E90001758ACB758C7DD28C308DFDC28DC28C01
:0308F9000E80E688
:0108FC0022D9
:10080000BC000BBE0029EF8DF084FFADF022E4CCDC
:10081000F875F008EF2FFFEE33FEEC33FCEE9DECA5
:10082000984005FCEE9DFE0FD5F0E9E4CEFD22EDEB
:10083000F8F5F0EE8420D21CFEADF075F008EF2F35
:10084000FFED33FD4007985006D5F0F222C398FD26
:050850000FD5F0EA22C3
:00000001FF
